:020000040800F2
:100000009015002049010008C9180008CD14000807
:10001000C518000899080008EB2A00080000000035
:10002000000000000000000000000000E5220008C1
:10003000C311000800000000BF19000801250008D6
:100040006301000863010008630100086301000800
:1000500063010008630100086301000863010008F0
:1000600063010008630100086301000863010008E0
:1000700063010008630100086301000863010008D0
:1000800063010008630100086301000863010008C0
:1000900063010008630100086301000863010008B0
:1000A00063010008630100086301000863010008A0
:1000B00069250008A5250008630100086301000800
:1000C0006301000863010008630100086301000880
:1000D000630100085128000863010008630100085B
:1000E0006301000863010008630100086301000860
:1000F0006301000863010008630100086301000850
:100100006301000863010008C125000863010008BD
:10011000630100086301000863010008630100082F
:100120006301000863010008450F0008630100082F
:10013000DFF810D000F09EFA00480047992B000825
:10014000AFF300809015002006488047064800471E
:10015000FEE7FEE7FEE7FEE7FEE7FEE7FEE7FEE777
:10016000FEE7FEE709250008310100082DE9FE4FF2
:10017000804681EA0300C00F0C46009021F0004148
:1001800023F00045B8EB0200A94105D240462146C4
:1001900090461C460B46024623F00040104347D0D1
:1001A000270DC7F30A00C3F30A510290401A0190C9
:1001B00040286BDAC3F3130040F4801B009892468A
:1001C00020B10023D2EB030A63EB0B0B01985946D5
:1001D000C0F14002504600F0BFF906460D465046B9
:1001E0005946019A00F0D7F910EB0800614100244C
:1001F00087EA115284EAE7731A4340D0009A62B347
:10020000019A012A4FEA075215DC001B61EB02013B
:100210004FF0004202EA0752CDE90042001C41F5CE
:10022000801132462B4600F0D7F903B0BDE8F08FBD
:1002300040462146F9E7001B61EB0201001C41F535
:10024000801300185B412018A2F5001747EB03014B
:1002500040EAD570B6196D4111E06D084FEA3606D7
:1002600045EAC0754FEA0752001B61EB0201001C12
:1002700041F5801149084FEA3000001951413246DA
:100280002B4603B0BDE8F04F00F097B9009801226B
:1002900040000023D0EB020263EBE073009821469C
:1002A0004FEAE074B8EB000061EB0401E9E783F08A
:1002B00000435BE781F0004158E72DE9FE4F81EAFA
:1002C000030404F0004421F0004100944FF0000BBF
:1002D00023F0004350EA01045ED052EA03045BD0ED
:1002E000C3F30A54C1F30A552C44A4F2F334019425
:1002F000A0FB0254C1F3130141F48011C3F31303B3
:1003000043F4801301FB024400FB034E840A970A66
:1003100044EA815447EA8357A4FB076802958D0A93
:1003200005FB07854FEA932C04FB0C542705029D1F
:100330004FEA065847EA1637B5EB08056EEB070C8F
:10034000870E920E47EA811742EA8312A7FB020149
:10035000B6EB0B0164EB00042B0D43EA0C335E1883
:1003600044EB1C50DA465146E7FB0201C5F3130487
:100370004FEA0B3343EA14534FEA0432019C43EA39
:100380000603A4F10C040294009CCDE900B400F033
:1003900023F903B0BDE8F08F00200146F9E72DE90D
:1003A000F04D81EA030404F0004B21F000451446AF
:1003B0004FF0000A23F0004150EA050220D054EA31
:1003C00001021DD0C5F30A570246C5F31303C1F35A
:1003D0001300C1F30A5640F4801543F48013A7EBD1
:1003E0000608101BD64608F2FD3873EB050002D351
:1003F00008F1010801E092185B41B8F1000F03DA3F
:1004000000200146BDE8F08D00204FF48011064623
:1004100084460EE0171B73EB050705D3121B63EB35
:10042000050306434CEA010C49084FEA30009218D4
:100430005B4150EA0107EDD152EA030012D082EA93
:10044000040083EA0501084305D0101BAB4106D226
:100450000122002306E000224FF0004302E06FF08B
:10046000010253101AEB06004CEB085110EB0A0086
:1004700041EB0B01BDE8F04D00F09FB80EB5C10F88
:1004800080EAE0700844CA07002140F233438DE857
:100490000E000A460B4600F09FF803B000BD0EB5F3
:1004A00040F2334102910021CDE900110A460B468A
:1004B00000F092F803B000BD70B5C1F30A5201F02C
:1004C00000450024C1F3130140F2FF3341F48011D1
:1004D0009A4201DA002070BD40F233439A42A2F200
:1004E000334203DC524200F046F800E090402C43D7
:1004F000F1D0404270BD000030B5041E71F100041F
:1005000004DB4FF00044404264EB0101141E73F120
:10051000000405DB1C464FF00043524263EB04032A
:100520008B4208BF824230BD30B5041E71F1000419
:1005300004DB4FF00044404264EB0101141E73F1F0
:10054000000405DB1C464FF00043524263EB0403FA
:10055000994208BF904230BD202A04DB203A00FABD
:1005600002F1002070479140C2F1200320FA03F30A
:10057000194390407047202A04DB203A21FA02F008
:100580000021704721FA02F3D040C2F120029140CD
:10059000084319467047202A06DBCB17203A41FA58
:1005A00002F043EAE07306E041FA02F3D040C2F100
:1005B0002002914008431946704710B5141E73F18C
:1005C000000408DA401C41F1000192185B411A4313
:1005D00001D120F0010010BD2DE9F04D92469B465F
:1005E00011B1B1FA81F202E0B0FA80F22032904605
:1005F000FFF7B2FF04460F4640EA0A0041EA0B014A
:1006000053465A46084313D0114653EA010019D005
:10061000C8F140025046FFF7AEFF05460E46504671
:1006200059464246FFF798FF084305D0012004E0F1
:1006300020463946BDE8F08D0020054346EAE076C5
:100640002C4337430A986305E40AA0EB0800002214
:10065000FD0A44EA47540A3002D500200146E9E782
:10066000010510196941DDE9084500196941BDE836
:10067000F04DA2E7064C074D06E0E06840F00103AC
:1006800094E8070098471034AC42F6D3FFF754FDC6
:10069000E02B0008002C000870B58C1810F8015BE6
:1006A00015F0070301D110F8013B2A1106D110F80B
:1006B000012B03E010F8016B01F8016B5B1EF9D10F
:1006C0002B0705D40023521E0DD401F8013BFAE795
:1006D00010F8013BCB1A921C03E013F8015B01F800
:1006E000015B521EF9D5A142D8D3002070BD21B1C3
:1006F000826842F00102826003E0826822F0010217
:100700008260704721B1826842F48072826003E0A7
:10071000826822F480728260704721B1826842F45C
:100720008012826003E0826822F480128260704747
:10073000014600208A6802F004020AB1012000E0AC
:1007400000207047014600208A6802F008020AB1C2
:10075000012000E00020704730B502460020002351
:1007600050680F4C20400D790C6844EA0524204362
:10077000506090680B4C2040D1E902542C434D79D5
:1007800044EA450420439060D06A20F470000C7C59
:10079000641EE4B2234340EA0350D06230BD00003F
:1007A000FFFEF0FFFDF7F1FFF0B504460D46002017
:1007B0000021092D11DDE068A5F10A0606EB4607C8
:1007C000072606FA07F18843A5F10A0606EB460656
:1007D00003FA06F10843E0600CE0206905EB4507E9
:1007E000072606FA07F1884305EB450603FA06F1EA
:1007F00008432061072A0FDA606B561E06EB860756
:100800001F2606FA07F18843561E06EB860605FAF0
:1008100006F10843606322E00D2A0FDA206BD61F31
:1008200006EB86071F2606FA07F18843D61F06EB5C
:10083000860605FA06F10843206310E0E06AA2F19B
:100840000D0606EB86071F2606FA07F18843A2F17C
:100850000D0606EB860605FA06F10843E062F0BDD8
:10086000816841F0080181607047816841F00401AE
:1008700081607047014890F90000704756000020E1
:1008800001480078704700005400002001480078BB
:10089000704700005500002000BFFEE72DE9F04F33
:1008A0008BB00021884689468B460C460D460E4685
:1008B0000F4600F005FE079007980690202170482B
:1008C00000F0A2FD012811D103206E4908704FF0FD
:1008D000010A07E000206B4901F80A000AF1010053
:1008E0004FFA80FABAF1050FF4DBC5E04FF0000AC9
:1008F00056E0654800EBCA0003C800221346CDE964
:100900000401FFF7F9FD04D80698401EC0B2069016
:1009100042E05D4800EBCA0003C842464B46CDE9C1
:100920000401FFF723FC80468946BAF1000F0ED17F
:10093000554800EBCA0030C8534800EBCA00C0C895
:100940000AF0FF0008900AF0FF00099023E04E48EB
:1009500000EBCA0003C832463B46CDE90401FFF76D
:10096000E3FD06D2484800EBCA00C0C80AF0FF0009
:100970000890454800EBCA0003C822462B46CDE943
:100980000401FFF7B9FD06D23F4800EBCA0030C8AA
:100990000AF0FF00099000BF0AF101004FFA80FA47
:1009A0000798401E5045A4DA22462B463046394669
:1009B000FFF77DFC0022354BCDE90401FFF7B4FDC4
:1009C0001DD222462B4630463946FFF7CFFB424622
:1009D0004B46CDE90401FFF76DFC80468946069839
:1009E000801EC0B206900022274B089803EBC0007F
:1009F00002604260099903EBC1010A604A600798EE
:100A0000B0B10698FFF74BFD02460B46CDE9000159
:100A100040464946FFF7C3FC00221D4BCDE90201C9
:100A2000FFF74BFCCDE90401FFF746FD0FFA80FB11
:100A30004FF48071174800F0F0FC01280BD1022020
:100A4000104908704FEA1B20487081F802B000205E
:100A5000C870087110E04FF400710E4800F0DDFC22
:100A6000012809D1074908700020487088704FEAB2
:100A70001B20C87081F804B00BB0BDE8F08F0000F7
:100A8000000C014034000020501000200000E03F26
:100A90000000244000100140002001490870704708
:100AA0000B1000200020014908707047081000203A
:100AB00000200149087070470910002000200149FA
:100AC000087070470A10002000B587B04FF400404E
:100AD00001F068F90121480201F090F90121042098
:100AE00001F08CF94020ADF8180000208DF81B00B3
:100AF00006A91E4800F0B4FB0020019001208DF8EB
:100B0000080000208DF809004FF400200390002019
:100B1000049001208DF8140001A91548FFF71CFE70
:100B20000723012206211248FFF73EFE012110484B
:100B3000FFF7E8FD01210E48FFF7EFFD01210C480A
:100B4000FFF7D5FD0A48FFF78BFE00BF0848FFF707
:100B5000F9FD0028FAD10648FFF787FE00BF0448D8
:100B6000FFF7E6FD0028FAD107B000BD00080140FC
:100B70000024014000B58BB00121084601F01EF9A8
:100B8000114800F019FA1148009011480190002016
:100B900002900120039000200490802005904000E6
:100BA00006908000079020200890C0010990002046
:100BB0000A906946044800F0C4FA0121024800F096
:100BC000EFF90BB000BD0000080002404C240140CA
:100BD0001C10002003B58DB00121022001F0EEF8B9
:100BE0001A4800F0E9F91A4802900D9803900E98FF
:100BF000059010200490002006908020079040006F
:100C000008908000099020200A9000020B9000209C
:100C10000C9002A90D4800F094FA3A208DF80400D7
:100C200000208DF805008DF8060001208DF80700E2
:100C300001A800F057FE01220221044800F078FAD2
:100C40000121024800F0ACF90FB000BD30040240B1
:100C50000874004008B50121102001F0CFF80121EF
:100C6000202001F0CBF84FF40060ADF800004820E0
:100C70008DF8030069460C4800F0F2FA4FF48050FA
:100C8000ADF8000048208DF803006946064800F0E2
:100C9000E7FA0420ADF8000048208DF8030069460B
:100CA000024800F0DDFA08BD0010014000140140C8
:100CB00008B50121102001F0A1F84FF48040ADF8F3
:100CC000000003208DF8020010208DF80300694613
:100CD0000D4800F0C5FA012291030B4800F0A8FB73
:100CE0004FF40040ADF8000003208DF80200102002
:100CF0008DF803006946044800F0B2FA0122D103DE
:100D0000014800F095FB08BD0010014010B54FF4FC
:100D1000A06000F01FFE10BD10B501F07FF84FF489
:100D2000803001F03DF901F099F90446012C24D1FD
:100D3000102000F07BFA022000F086FA002001F07B
:100D400023F9002001F05EF9A00201F04FF94FF401
:100D5000E011200401F068F9012001F05FF900BF03
:100D6000392001F0EBF80028FAD0022001F06AF9EE
:100D700000BF01F001F90828FBD110BD7FB5054681
:100D80000C460121084601F029F8ADF80850ADF8ED
:100D900004400020ADF80A00ADF8060001A94FF0AC
:100DA000804001F093FC01221146900701F07CFC89
:100DB0001C208DF8000000208DF8010003208DF824
:100DC000020001208DF80300684600F08BFD012130
:100DD000880701F04CFC7FBD3EB505460C4601215D
:100DE000022000F0FBFFADF80450ADF800400020F9
:100DF000ADF80600ADF802006946084801F066FC4F
:100E00002021064801F059FC01221146034801F057
:100E10004BFC0121014801F02AFC3EBD00040040CA
:100E20007FB505460C460121082000F0D7FFADF83C
:100E30000850ADF804400020ADF80A00ADF80600F7
:100E400001A90E4801F042FC012211460B4801F0B5
:100E50002BFC32208DF8000000208DF801000320CB
:100E60008DF8020001208DF80300684600F03AFD7D
:100E70000121024801F0FBFB7FBD0000000C004097
:100E800010B586B004460121880300F0B7FF0121A8
:100E9000042000F0B3FF4FF40070ADF814001820E8
:100EA0008DF8170003208DF8160005A9224800F0E0
:100EB000D7F94FF48060ADF8140004208DF81700C6
:100EC00005A91D4800F0CCF901A801F002FE01942B
:100ED0000020ADF80800ADF80A00ADF80C000C20B9
:100EE000ADF80E000020ADF8100001A9134801F084
:100EF0007BFD25208DF8000001208DF801008DF884
:100F000002008DF80300684600F0ECFC012240F27C
:100F100025510A4801F043FD012240F2277107489C
:100F200001F03DFD0121054801F0F6FC00200449D7
:100F3000087006B010BD00000008014000380140F4
:100F40001210002010B50B4800F0DCF880B13A20F8
:100F500000F01F0201219140074A430942F8231083
:100F600000BF064800F00EF8054803C8FFF732FE40
:100F700010BD00000002001080E200E0000100103F
:100F80001410002000F0805111B10349086001E005
:100F9000024948607047000004040240000002401B
:100FA00021B1026842F00102026004E002684FF6DB
:100FB000FE731A400260704701684FF6FE721140DE
:100FC00001600021016041608160C1604B4988423D
:100FD00008D14A490839496841F00F01474A083A9F
:100FE00051608AE045491431884208D143490839A3
:100FF000496841F0F001414A083A51607DE03F49BB
:101000002831884208D13D490839496841F4706166
:101010003A4A083A516070E038493C31884208D178
:1010200036490839496841F47041344A083A5160F8
:1010300063E032495031884208D130490839496863
:1010400041F470212D4A083A516056E02B49643131
:10105000884208D129490839496841F47001274A72
:10106000083A516049E025497831884208D123493E
:101070000839496841F07061204A083A51603CE003
:101080001F49884206D1011F096841F00F01021F64
:10109000116032E01A491431884208D11849091FF9
:1010A000096841F0F001164A121F116025E0144949
:1010B0002831884208D11249091F096841F470613A
:1010C0000F4A121F116018E00D493C31884208D1C7
:1010D0000B49091F096841F47041094A121F116048
:1010E0000BE007495031884207D10549091F0968BB
:1010F00041F47021024A121F11607047080002403B
:101100000804024001460020002201F0805313B180
:10111000054B1A6801E0054B1A6802EA01030BB19E
:10112000012000E00020704700040240000002405F
:101130001AB103680B43036002E003688B4303604A
:10114000704710B50022026847F6F0739A430C6AA4
:101150008B6823430C6923434C6923438C692343E5
:10116000CC6923434C6A23438C6A23431A430260AD
:10117000CB6843600B6883604B68C36010BD30B5BB
:101180000346002016E0B3F900509C68645D0C54DF
:101190001C88641C24B21C80B3F90040B3F90450CD
:1011A000AC4201DB00241C80441C20B2DC88641E9D
:1011B00024B2DC80B3F90640002C01DD9042E2DB72
:1011C00030BD704770B50346002016E00C5CB3F9E3
:1011D00002609D68AC555C88641C24B25C80B3F9E5
:1011E0000240B3F90450AC4201DB00245C80441C93
:1011F00020B2DC88641C24B2DC80B3F90640B3F969
:101200000450AC4201DA9042E0DB70BD10B5012021
:1012100004490870012240F22771034801F0BFFB26
:1012200010BD000012100020003801400549096877
:1012300021F01001034A1160114609680143116051
:10124000704700000020024001460020034A106859
:1012500000F0380008431060704700000020024092
:101260002DE9F0410246002500260020002300243D
:10127000002791F803C00CF00F0591F803C00CF0A3
:10128000100CBCF1000F03D091F802C04CEA050528
:1012900091F800C0BCF1000F31D0146800202BE0A1
:1012A0004FF0010C0CFA00F3B1F800C00CEA030691
:1012B0009E4220D183004FF00F0C0CFA03F7BC4381
:1012C00005FA03FC4CEA040491F803C0BCF1280FB2
:1012D00006D14FF0010C0CFA00FCC2F814C00AE071
:1012E00091F803C0BCF1480F05D14FF0010C0CFA86
:1012F00000FCC2F810C0401C0828D1D31460B1F81B
:1013000000C0BCF1FF0F34DD546800202EE000F176
:10131000080C4FF0010808FA0CF3B1F800C00CEA11
:1013200003069E4221D183004FF00F0C0CFA03F705
:10133000BC4305FA03FC4CEA040491F803C0BCF179
:10134000280F05D100F1080C08FA0CF8C2F8148037
:1013500091F803C0BCF1480F07D100F1080C4FF021
:10136000010808FA0CF8C2F81080401C0828CED3F7
:101370005460BDE8F0810000F0B50A460023002467
:101380000021002500F00046B6F1004F02D11D4EAD
:10139000F16901E01B4E7168C0F3034583B200F4AC
:1013A0004016B6F5401F08D121F07061154E7668E1
:1013B00026F07066134F7E6012E000F48016B6F5DA
:1013C000801F06D1032606FA05F4A14341F070619F
:1013D00006E0460D360103FA06F6B14341F07061AE
:1013E00022B1460D360103FA06F6314300F00046FD
:1013F000B6F1004F02D1034EF16101E0014E716080
:10140000F0BD0000000001400246002093680B4040
:101410000BB1012000E00020704702460020D36895
:101420000B400BB1012000E0002070474161704784
:101430000AB1016100E04161704700000148007895
:10144000704700000B100020014800787047000032
:1014500008100020014800787047000009100020A3
:1014600001480078704700000A1000202DE9F04183
:1014700004460F48008841F28831884204D1002098
:101480000C49C4E9000110E009480088FFF707F89B
:1014900005464FF06632084BFEF70FFF0746002265
:1014A000064BFEF77CFFC4E90001BDE8F0810000B7
:1014B0001C1000200000F0BF66660A4000FEAF402E
:1014C00001480078704700003000002000BFFEE7B0
:1014D00010B540F2CF2140F21F30FFF77DFCFFF73F
:1014E000F3FAFFF747FB10BD10B501F00DF800F05F
:1014F0006FF800F023F84FF4E13000F027F900F026
:1015000019F900F017F800F073F800F007F800F090
:101510003DF8FFF7DDFF00F09FF810BD10B5FFF7B5
:1015200099FB0020024908704870887010BD0000C7
:101530004B00002010B5FFF7BBFB10BD10B5FFF747
:10154000E5FB10BD00210C4A117051709170002014
:1015500005E000220849C91C0A54411C08B20728AA
:10156000F7DB0021044A5172044A1170044A1170D9
:10157000044A117070470000A010002048000020AD
:10158000490000204A000020704700000020044964
:10159000087004490870FF20034908707047000074
:1015A00054000020550000205600002030B50B46A6
:1015B0000024048044808280C4808360002104E091
:1015C000002485686C544C1C21B29142F8DB30BD7C
:1015D00010B5FFF7A1FB10BD704710B5FFF7B2FFC4
:1015E000FFF7D2FFFFF7F8FF00F010F910BD000081
:1015F00030B5164800684FF47A72B0FBF2F1B1F1E1
:10160000807F01D301201DE021F07F40401E4FF07C
:10161000E022506150170F22002807DA13071D0E31
:101620000B4B00F00F04241F1D5503E013071C0E85
:10163000084B1C5400BF00204FF0E02290610720AF
:101640001061002008B100BFFEE730BD3810002057
:1016500018ED00E000E400E008B50121082000F0EA
:10166000CDFB0121102000F0C9FB0121084600F04C
:10167000C5FB01212C48FFF77FFE0820ADF80000D4
:1016800010208DF8030003208DF8020069462748DA
:10169000FFF7E6FD1020ADF800008DF803000320F1
:1016A0008DF8020069462148FFF7DAFD4FF480709B
:1016B000ADF8000010208DF8030003208DF8020023
:1016C00069461B48FFF7CCFD4FF40070ADF80000F1
:1016D00010208DF8030003208DF80200694614489D
:1016E000FFF7BEFD2020ADF8000048208DF8030074
:1016F00069460E48FFF7B4FD01210B48FFF73CFE99
:1017000008210A48FFF792FE10210848FFF78EFED5
:101710004FF480710648FFF789FE4FF400710448CA
:10172000FFF784FE08BD000000023000000C0140FD
:101730000010014010B5472140F2E730FFF71EFBD3
:10174000472140F2E730FFF76BFB10BD10B50446B0
:1017500000F004F82046FFF793FB10BD10B50024FD
:1017600006E000200949085509490855601C04B2E3
:10177000642CF6DB642205490648FFF717FF642254
:1017800003490548FFF712FF10BD0000C4100020F8
:1017900028110020AC100020B81000200022114BAE
:1017A0001A605A60104B1A605A601049104BC3E916
:1017B00000211049104BC3E9002100210F4B196093
:1017C00059600F4A1170002008E000220D490E4BAD
:1017D00003EBC003C3E90021411CC8B20A28F4DBB3
:1017E00070470000080000201000002000B6CC4028
:1017F00018000020000019402000002028000020D0
:1018000030000020000024C05010002000B5FFF779
:10181000C5FF00200749087007490870074908708C
:1018200007490870074908700749087001200749EF
:10183000087000BD3100002032000020330000207D
:101840000000002002000020010000200300002012
:1018500010B50446012C0AD1002281031848FFF775
:10186000E7FD0022E1031648FFF7E2FD26E0022C27
:101870000AD1012291031248FFF7DAFD0122D103B8
:101880000F48FFF7D5FD19E0032C0BD100224FF4D0
:1018900080410B48FFF7CCFD0122D1030848FFF738
:1018A000C7FD0BE0042C09D1012291030448FFF786
:1018B000BFFD002261030248FFF7BAFD10BD000022
:1018C0000010014000BFFEE77047000000F01F025B
:1018D00001219140024A430942F823107047000059
:1018E00080E200E070B5002100230F22C47804B329
:1018F000154C246804F4E064C4F5E064210AC1F1E5
:101900000403CA40447804FA03F184781440214364
:1019100009010E4C0678A155047804F01F05012436
:10192000AC4005786D11AD0005F1E025C5F800412A
:1019300009E0047804F01F050124AC40044D06784A
:10194000761145F8264070BD0CED00E000E400E0A3
:1019500080E100E002490143024A11607047000043
:101960000000FA050CED00E070B504460025207873
:10197000802803DA0125204600F002F8284670BDD1
:1019800010B50378002208210DE05406220E445CB5
:1019900042EAD412445C44F080044454445C1C4445
:1019A000E3B24C1EE1B20129EFDC42F08004447046
:1019B00044781C44E3B243F08004447210BD704785
:1019C0001CB5FFF73BFD002850D06846FFF74EFDE1
:1019D00000221346DDE90001FEF7A6FD21D82021F3
:1019E0002348FFF711FD234908702348007828B1E8
:1019F000002021490870052020490870FEF73AFFB1
:101A0000012807D0FEF736FF022803D019480078D6
:101A1000012804D1FEF742FF194800F0DFFCFFF770
:101A2000BDFE164890F90000002805DD002013498E
:101A300008700120134908700E480078012807D16A
:101A40001149087000200D4908700E4908700BE01C
:101A50000D48007840B1002008490870012009496C
:101A60000870002008490870FFF716F81CBD000038
:101A7000000C014003000020320000200100002083
:101A800034000020310000200200002010B5FFF7D4
:101A9000DBFCE8B10F480078052812DB0E4A0F493D
:101AA000002000F021FC0E4A0E49012000F01CFC31
:101AB0000D4A0E49022000F017FC0020054908706D
:101AC00004E004480078401C02490870FEF7EAFF71
:101AD00010BD00003A0000200D1D0008911D0008F7
:101AE0008D1D0008931D00088F1D0008951D00081E
:101AF0001FB5FFF7AFFC00287ED05E4800780128B4
:101B00000ED102A8FFF7B2FC00221346DDE9020164
:101B1000FEF70AFD63D8584ADDE9020103C25EE020
:101B200054480078022819D102A8FFF79FFC002230
:101B30001346DDE90201FEF7F7FC50D84F4ADDE914
:101B40000210C2E900104E484E49CDE9001010467F
:101B500049490CC803C900F0ABFA40E04548007899
:101B600003283CD1FEF786FE012803D0FEF782FE53
:101B7000022826D120214448FFF746FC434908703B
:101B80000846007888B902A8FFF770FC00221346C7
:101B9000DDE90201FEF7C8FC07D83D4ADDE9021085
:101BA000C2E9001001203B490870FEF763FE0228DD
:101BB00003D1032000F0DCFD11E0042000F0D8FD8B
:101BC0000DE0FEF757FE032803D1012000F0D0FD01
:101BD00005E0FEF74FFE10B9022000F0C9FD2548D0
:101BE0000078401C00F00300224908702948007862
:101BF00028B30020274900E03AE00870204803C8D5
:101C0000CDE900011F4822490CC803C900F0B2FA0F
:101C1000214A03C2204903C900F0CCFA1F4A204BD5
:101C20001B7802EBC30203C21D480078401C1C490C
:101C300008701C480078401C40B21A4908701948C6
:101C400090F90000042809DC0A48007830B90F48F0
:101C5000007818B901200749087007E00B480078A0
:101C600020B100200F49087002490870FEF720FFDC
:101C70001FBD0000310000200800002010000020DF
:101C80002000002018000020000C0140030000206C
:101C900040000020000000202800002050100020FC
:101CA000300000200100002010B5FFF7D9FB38B349
:101CB00014480078012802D100F05AFD18E01148BC
:101CC0000078022802D100F053FD11E00D480078A1
:101CD00003280DD1FEF7DAFD50B9FEF7D1FD01283A
:101CE00003D1032000F044FD02E0042000F040FD99
:101CF0000448007810B1012003490870FEF7DEFEA9
:101D000010BD0000310000203300002010B501207C
:101D1000194908701949087019490978481C00EBDD
:101D2000D0714910A0EB4101154A1170104600789E
:101D3000012803D013480078012813D111480078F6
:101D4000012805D100200F49087001200C490870B6
:101D500002200D4908700320FFF77AFD032000F0F0
:101D600007FD08E00120084908700420FFF770FD16
:101D7000042000F0FDFC10BD3200002031000020E6
:101D80005400002055000020560000207047704786
:101D90007047704770470146C88808B901207047EE
:101DA0000020FCE701460020034A506820F4404030
:101DB00008435060704700000010024029B1064AF5
:101DC00052690243044B5A6104E0034A5269824358
:101DD000014B5A61704700000010024029B1064AC9
:101DE000D2690243044BDA6104E0034AD2698243B8
:101DF000014BDA61704700000010024029B1064A29
:101E000092690243044B9A6104E0034A9269824357
:101E1000014B9A6170470000001002400F480068B3
:101E200040F001000D490860084640680C49084030
:101E30000A494860084600680A490840074908609E
:101E40000846006820F4802008600846406820F4B6
:101E5000FE0048604FF41F00886070470010024089
:101E60000000FFF8FFFFF6FE30B50021002200243D
:101E700000232D4D6D6805F00C0121B1042905D01A
:101E8000082923D105E0294D056022E0274D056092
:101E90001FE0254D6D6805F47012234D6D6805F443
:101EA0008034022505EB92421CB9214D5543056053
:101EB0000BE01D4D6D6805F400351DB11C4D5543FB
:101EC000056002E0194D5543056002E0174D0560BD
:101ED00000BF00BF144D6D6805F0F0010909154DF4
:101EE0006B5C0568DD4045600F4D6D6805F4E06191
:101EF000090A104D6B5C4568DD4085600A4D6D68D0
:101F000005F46051C90A0B4D6B5C4568DD40C56046
:101F1000054D6D6805F44041890B074D6B5CC56844
:101F2000B5FBF3F5056130BD0010024000127A00E8
:101F300000093D001E1000202E10002010B50146A3
:101F40000022002300204A11012A02D1094C2368F3
:101F500006E0022A02D1074C236A01E0054C636ABD
:101F600001F01F02012494401C400CB1012000E04C
:101F7000002010BD001002400248406800F00C0034
:101F8000704700000010024001460020034A5068DC
:101F900020F0F0000843506070470000001002403D
:101FA0001149096821F480310F4A1160114609680E
:101FB00021F480211160B0F5803F03D0B0F5802F6F
:101FC0000ED106E00849096841F48031064A1160E3
:101FD00007E00549096841F4A021034A116000E0C7
:101FE00000BF00BF70470000001002400146002003
:101FF000034A506820F4E0600843506070470000D6
:102000000010024001460020034A506820F460504E
:1020100040EAC10050607047001002400149086664
:10202000704700000000424202460020044B5868FE
:1020300020F47C1042EA01031843014B58607047BA
:102040000010024001460020034A506820F00300BF
:1020500008435060704700000010024038B500206F
:1020600000900024002500BF3120FFF767FF0546E0
:102070000098401C00900098B0F5A06F01D0002D92
:10208000F2D03120FFF75AFF08B1012400E000240C
:10209000204638BD70B5044600250122214603487C
:1020A000FFF76DF8C5B2284670BD0000AC100020E7
:1020B0002DE9FF5F04460D4616461F4600BF00BFD0
:1020C00032463B4600202749FEF7F7F8804689460E
:1020D0000022254B20462946FEF7EFF8824642466D
:1020E0004B46FEF7E4F832463B46CDE90201204676
:1020F0002946FEF7DFF8804600221C4BFEF7DDF88C
:10210000CDE90001DDE90223FEF749F90E9A03C289
:102110000022154B20462946FEF7CFF882468B4613
:1021200032463B4600200F49FEF7C7F8804652462C
:102130005B46FEF7BCF800220D4BCDE902012046BC
:102140002946FEF7BAF8804632463B46FEF7B5F818
:10215000CDE90001DDE90223FEF721F90F9A03C260
:10216000BDE8FF9F00B6BC4000E07F404A994C416B
:1021700000B8BA402DE9FC5F04460D4616461F46DE
:1021800020462946DDE90C23FEF794F8804689466F
:1021900032463B4620462946FEF78FF882464246A5
:1021A0004B46FEF7FCF8CDE90001DDE90001BDE892
:1021B000FC9F00002DE9FF4704460D4600210E4616
:1021C0000F468A4680E0454800EBCA01D1E900830A
:1021D000424620462946FEF78FF943D23F490AF18D
:1021E000010001EBC001D1E90083424620462946A7
:1021F000FEF79AF936D239490AF1010001EBC00124
:10220000D1E90083424620462946FEF750F8CDE941
:102210000201324800EBCA00D0E900834246204662
:102220002946FEF747F8CDE90001DDE90223FEF774
:102230007BF90BD80AF10200FEF720F98046002254
:10224000274BFEF7ACF806460F4641E00AF10100C5
:10225000FEF714F980460022214BFEF7A0F806464F
:102260000F4635E01D4800EBCA00D0E90083424626
:1022700020462946FEF740F90BD10AF10100FEF78E
:10228000FDF880460022164BFEF789F806460F46F9
:102290001EE012490AF1010001EBC000D0E9008301
:1022A000424620462946FEF727F90BD10AF10200E3
:1022B000FEF7E4F880460022094BFEF770F8064668
:1022C0000F4605E00AF1010ABAF5FB7FFFF47BAF88
:1022D00000BF3046394604B0BDE8F0875800002002
:1022E000000024407047000070B504460D461646B5
:1022F0002648005D4006000E2449085524B1012CF3
:102300000DD0022C20D115E04FF400612048FFF7DA
:102310007BF81E49095D08431C49085515E04FF438
:1023200080511B48FFF770F81849095D08431749A9
:1023300008550AE004211748FFF766F81349095DBC
:1023400008431249085500E000BF00BF0F48005D78
:102350001149095D884208D11048005D012804D167
:10236000B04700200D4908550EE00848005D0A49B5
:10237000095DC943C9B2884206D10848005D18B951
:10238000A84701200549085570BD00004E000020F7
:1023900000100140001401404B00002051000020BB
:1023A00010B50446E1B2054800F08FFB00BF4021A4
:1023B000024800F0BDFA0028F9D010BD00380140F5
:1023C00070B5044600252046FFF7CEFA0546002DDD
:1023D00003DD0A21204600F097FB70BD3EB50446A0
:1023E00012208DF8000002208DF8020020788DF870
:1023F000030061788DF80410A1788DF80510E1785C
:102400008DF8061021798DF8071000218DF808103D
:102410006846FFF7D5FF3EBD10B500F001F810BDCE
:102420000CB50020019000903348006840F48030E3
:102430003149086000BF3048006800F40030009067
:102440000198401C0190009818B90198B0F5A06F50
:10245000F1D12948006800F4003010B1012000904B
:1024600001E0002000900098012843D12348006833
:1024700040F01000214908600846006820F0030081
:1024800008600846006840F0020008601A4840688A
:10249000194948600846406848600846406840F46A
:1024A000806048600846406820F47C104860084618
:1024B000406840F4E81048600846006840F08070CA
:1024C000086000BF0C48006800F000700028F9D0D8
:1024D0000948406820F00300074948600846406802
:1024E00040F00200486000BF0348406800F00C0064
:1024F0000828F9D10CBD0000001002400020024065
:1025000010B500F099F910BD10B51348006840F0FF
:1025100001001149086008464068104908400E490A
:102520004860084600680E4908400B4908600846A4
:10253000006820F4802008600846406820F4FE000F
:1025400048604FF41F008860FFF766FF4FF000609F
:102550000449086010BD0000001002400000FFF8B0
:10256000FFFFF6FE08ED00E010B50121880700F03E
:102570008AF8012803D10121800700F075F8074887
:102580000088401C0549088008460088022804DBB2
:102590000020088001200249087010BD0C100020A6
:1025A0000810002010B50121044800F06CF818B1A3
:1025B0000121024800F058F810BD0000000400405E
:1025C00010B50121214800F05EF8012803D1012156
:1025D0001E4800F049F81E480088401C00B21C4903
:1025E00008800846B0F900003C2190FBF1F201FBA5
:1025F000120010B90120174908701748007820B15F
:1026000016480088401C1549088014480088142189
:1026100090FBF1F201FB120050B91048008838B16C
:1026200001200F49087000200C4908800A490870F1
:102630000748B0F90000B0F57A7F05DB00200449B7
:10264000088001200749087010BD0000000C004000
:102650000E1000200A10002033000020101000206F
:10266000091000200B100020CA430282704721B1DC
:10267000028842F00102028004E002884FF6FE73F5
:102680001A400280704730B5024600200023002423
:10269000158A05EA0103958905EA010413B10CB115
:1026A000012000E0002030BD1AB183890B438381F3
:1026B00002E083898B438381704782884FF68F7352
:1026C0001A40828082880A438280704700220288F2
:1026D0001D4B98420ED01D4B98420BD0B0F1804F4D
:1026E00008D01B4B984205D01A4B984202D01A4B87
:1026F000984204D14FF68F731A404B881A43174BF8
:10270000984207D0164B984204D04FF6FF431A4028
:10271000CB881A4302808B8883850B8803850A4BFC
:1027200098420BD0094B984208D00E4B984205D0E6
:102730000D4B984202D00D4B984201D10B7A038683
:102740000123838270470000002C014000340140C7
:102750000004004000080040000C00400010004051
:102760000014004000400140004401400048014086
:1027700010B50446012C14D1012208212C48FEF783
:1027800057FE002210212A48FEF752FE00222102A5
:102790002848FEF74DFE002261022648FEF748FE5B
:1027A00044E0022C14D1002208212148FEF740FE0B
:1027B000012210211E48FEF73BFE0022E1011D48C8
:1027C000FEF736FE002221021A48FEF731FE2DE008
:1027D000032C15D1002208211548FEF729FE0022FE
:1027E00010211348FEF724FE012211021148FEF7C2
:1027F0001FFE00224FF400710E48FEF719FE15E08F
:10280000042C13D1002208210948FEF711FE0022F2
:1028100010210748FEF70CFE0022A1010548FEF733
:1028200007FE012251020348FEF702FE10BD000020
:10283000000C0140001001400448006820B103482A
:102840000068401E014908607047000034100020F5
:1028500008B50020009040F22551204800F075F89E
:1028600058B12520FFF732F81C4800F029F9C0B212
:1028700000909DF8000000F03BF90821174800F097
:1028800057F8012806D10821144800F02DF8134804
:1028900000F016F940F22771104800F056F8E0B148
:1028A00040F227710D4800F028F82520FFF70EF8B8
:1028B0006846FFF7EFFB9DF80010084800F005F9A7
:1028C0000748FFF768FA40B1002006490870002267
:1028D00040F22771014800F062F808BD003801405D
:1028E000AC1000201210002001F40072B2F5007F3D
:1028F00000D100BFCA430280704710B500220023F8
:1029000040F66A14A14200D100BF0A12012494408B
:10291000A3B2DC43048010BD21B1828942F400528D
:10292000828104E082894DF6FF731A4082817047EC
:1029300002460020B1F5007F00D100BF13880B4094
:102940000BB1012000E00020704770B50246002462
:1029500000230025002040F66A16B14200D100BFD6
:10296000C1F3421501F01F03012606FA03F3012DFE
:1029700002D19689334006E0022D02D1168A3340F7
:1029800001E0968A33400C12012606FA04F41688F8
:10299000344013B10CB1012000E0002070BDF0B54F
:1029A0000346002400260025002040F66A17B9429D
:1029B00000D100BF1846C1F3421401F01F060127E1
:1029C00007FA06F5012C01D10C3004E0022C01D1EC
:1029D000103000E014301AB107682F43076002E09E
:1029E0000768AF430760F0BD2DE9F04786B00546A4
:1029F0000E460024A24600BFA1460027B08900B1C0
:102A000000BF2F462C8A4CF6FF700440F088044328
:102A10002C82AC894EF6F3100440B088318908430B
:102A2000718908430443AC81AC8A4FF6FF400440EF
:102A3000B0890443AC8201A8FFF716FA1F48874209
:102A400002D1DDF810A001E0DDF80CA0A88900F4A7
:102A5000004040B10AEBCA0000EB0A10316849009F
:102A6000B0FBF1F807E00AEBCA0000EB0A1031688E
:102A70008900B0FBF1F86420B8FBF0F004012009F4
:102A8000642101FB1089A88900F4004040B1322084
:102A900000EBC900B0FBF1F000F00700044308E0D0
:102AA000322000EB09106421B0FBF1F000F00F00C0
:102AB00004432C8106B0BDE8F087000000380140D7
:102AC00001468888C0F308007047C1F3080282807D
:102AD00070474FF41651016000218180C18001814F
:102AE0000C21418100218181704700BFFEE7000079
:102AF00031B50024012269460248FEF763FBC4B2E7
:102B0000204638BDB810002070B504460D4600269A
:102B10002A4621460648FEF755FBC6B2642E04DA63
:102B20000448007808B9FEF771FB304670BD00001C
:102B3000AC10002012100020014A024900F013B826
:102B4000892B00084C10002002E008C8121F08C1A1
:102B5000002AFAD170477047002001E001C1121F1E
:102B6000002AFBD170472DE9F04116460F46044676
:102B7000002503E03946B047641C6D1C207800280E
:102B8000F8D12846BDE8F08170B504460D46E0B2A4
:102B9000FFF706FC204670BDFEF7A6FCFEF71DFD04
:102BA00006A0FFF7C9FF07E0FEF770FFFFF77CF80C
:102BB000FEF79EFFFEF704FFF6E70000496E69741A
:102BC0002053797374656D20686173206265656E4A
:102BD0002066696E69736865642E0D0A0000000046
:102BE000002C00080000002050100000980600088B
:102BF000043300085010002040050000582B000846
:102C0000015D44BBBC40580B8095BC40CDCCCCCCC6
:102C10004C70082D4BBC4066014A26105BCC01105D
:102C20002DDDBB4033015AB9084B95BB403B71BB0E
:102C3000205BE64D104B2ABB485A07081EE4BA40F9
:102C40009A99013BC1BA20115A9F104B7CBA585A2D
:102C50005A085A38185A16284BF5B9104BD3B920D0
:102C60004BB2B9504B91B9684A70105BCC4F184ABF
:102C70002F18114A0F304CE6EEB8085ACE084BA870
:102C8000B8504B8FB8C05A70185A50084B31B840E2
:102C90004B13B8504BF4B7604BD5B7804BB7B73830
:102CA0005A99084A7B204C4C5DB7584A3F085B193B
:102CB00022385A04184BE7B6B03BCAB6384CB3AD0D
:102CC000B6704A90084B667420114B58B6385A3B80
:102CD000285A1F105A03204BE8B5304ACC084CE65E
:102CE000B0B5604B95B5605A7A085A5F185A4428B7
:102CF0004B29B5A85A0F104BF4B4604BDAB4304BE3
:102D0000C0B4305AA6184A8C18115A73204A592058
:102D10004C1940B4905A26285A0D084BF4B3184B5E
:102D2000DBB3284BC3B3384AAA08114B92B3285AD5
:102D300079185A61084A49305B9931405A19405A0A
:102D400002183BEAB2384C33D3B2B84BBBB2284A74
:102D5000A4185BB38D104B76B2384A60285B664985
:102D6000304B32B2685A1C484A0610114BF0B10879
:102D70004BDAB1383BC4B1484B4CAE105B9998204C
:102D80004A83084C806DB1404B58B1584A42305B81
:102D9000CC2D085A18185A03504BEFB0884ADA085D
:102DA0005BE6C5104BB1B0204B9DB0384B88B0C826
:102DB0005A74085A60184B4CB0804A39105B4C2545
:102DC000205A11484BFCAFA84BD5AF285BAFAF5092
:102DD00059185A62085A3C204B17AF384BF1AE10C5
:102DE0005ACC085AA7084B82AEE04B5DAE384B3840
:102DF000AE305A14184BF0AD084BCCAD184BA8AD03
:102E0000705A84105A61205A3E085A1B184BF8AC6D
:102E1000284BD5AC184BB3AC705A91185A6E105A57
:102E20004D204B2BAC805A09104BE8AB205AC708F9
:102E30004BA6AB184B85AB605A64184B44AB385A61
:102E400023185A03084BE3AA184BC3AA704BA3AA32
:102E5000184B84AA385A65185A45085A26184B0840
:102E6000AA684BE9A9404BCAA9384BACA9205A8E95
:102E7000084B70A9285A52204B34A9485A16104BB7
:102E8000F9A8285ADC085ABF085AA2084B85A82876
:102E90004B68A8385A4B104B2FA8585A13084BF7B9
:102EA000A7084BDBA7205BBFA7D059185A88104B47
:102EB0006CA7B05A51085A36085A1B20114AA778F5
:102EC0004BE6A6184BCBA6104BB1A6205A96185A23
:102ED0007C085A62185A48284B2FA6805A15104B66
:102EE000FCA5284BE2A5185AC9085AB0085A9720E1
:102EF0004B7EA5305A66185A4D105A35205A1C1868
:102F00005A04084BECA4084BD4A4204BBCA4305A60
:102F1000A5184B8DA4985A75205A5E182D47A440C9
:102F200033015A30085A19085A02284BEBA3384B80
:102F3000D4A3305ABE104BA7A3205A91184B7BA3A1
:102F4000385A67085A4F185A39284B23A3905A0EFB
:102F5000184BF8A2104BE3A2204BCDA2184BB8A2FD
:102F6000405AA3085A8E185A79284B64A2805A4FA7
:102F7000205A3B105A26285A12584BFEA1185AE9DB
:102F8000085AD5085AC1084BADA1284B9AA1484B05
:102F900086A1605A72105A5F284B4BA1585A38309C
:102FA0005A25085A12084BFFA0084BECA0384BD901
:102FB000A0304BC6A0405AB3185AA1105A8E205ABE
:102FC0007C385A6A185A57084B45A0885A33105A09
:102FD00021085A0F304BFC9F104BD89F284BB59FB0
:102FE000505A92104B6F9F705A4D184B2A9F385A67
:102FF00008084BE69E085AC4084BA29E284B809EA8
:10300000584B5E9E485A3D184B1C9E504BFB9D10E2
:103010004BDA9D204BB99D184B999D385A78205A10
:1030200058085A38085A18204BF89C305BD99C40F5
:103030004A9C205A9A184B7B9C905A5C105A3D200F
:103040005A1E304BFF9B184BE19B505AC2085AA4A2
:10305000085A86085A68284B4B9B384B2D9B585A68
:1030600010204BF29A184BD59A605AB8104B9B9A85
:10307000205A7E184B629A385A46204B299A585A41
:103080000D084BF199085BD599D04A99304B9E9920
:10309000405A82205A67184B4C99605A30305A1562
:1030A000104BFA98204BE098184BC598384BAB98CA
:1030B000204B9098505A76085A5C085A42205A2859
:1030C000085A0E384BF597504BDC97284BC297188F
:1030D0005AA9185A90105A77204B5E97784B45970B
:1030E000485A2C185A14304BFC96205AE3085ACBF5
:1030F000085AB3085A9B084B8396304B6C96404B4A
:103100005496505A3C205A25184B0E96805BF795E2
:10311000F84A95104BC995205BB295584A95405A8C
:1031200084185A6E305A58205A41085A2B085A159A
:10313000084BFF94084BE994304BD494404BBE9419
:10314000504BA894705A93285A7D205A68185A53A5
:10315000105A3E105A29105A14304BFF93484BEA2C
:1031600093184BD693684BC293204BAD93385A9922
:10317000285A84085A70085A5C085A48285A350850
:103180005A21405A0D504BFA92284BE692204BD3CD
:1031900092185AC0184BAC92304B9992885A8610AC
:1031A0005A73105A60105A4D405A3B185A28185AF0
:1031B00015185A03504BF091205ADE085ACC084B90
:1031C000BA91785AA8085A96185A84084B729140B6
:1031D0004B6091504B4F91605A3D305A2C285A1AEF
:1031E000205A0D185BF890E04A90305AD5105AC416
:1031F000105AB3104BA290304B9290405A81185AFB
:1032000070185A60305A4F205A3F204B2E90785AEF
:103210001E085A0E304BFC8F085ADC084BBC8F300E
:103220005A9C084B7C8F505A5D085B3D8F484A8FF3
:10323000604BFF8E284BE08E204BC18E184BA38E27
:10324000505A84185A65185A47105A29105A0B10A8
:103250004BED8D304BD08D604BB28D584B948D28FB
:103260005A77185A5A185A3C305A20205A03204B81
:10327000E68C505AC9084BAD8C305A90085A7408E5
:103280005A58085A3C085A20085A04384BE98B50BF
:103290005ACE084BB28B684B978B784B7C8B285A55
:1032A00061205A46184B2C8B485A10184BF68A1836
:1032B0004BDC8A305AC1105AA8105A8D105A74101B
:1032C0005A59104B408A404B268A505A0C184BF4DE
:1032D00089184BDA89185BC089504A89A05A8F2017
:1032E0005A76085A5A205A3808F14388132D010299
:1032F0000304047009060708090204060884A24AA8
:0433000004691E41FD
:0400000508000131BD
:00000001FF
